:020000040000FA
:10000000020003120014787FE4F6D8FD75814B02DC
:100010000015000022111980FE85BF08514F51FCC8
:100020007125711711377103711B113B71377113F2
:1000300051588508BF222275A90B2243981022220D
:0200400022227A
:100043006149BB010689828A83E0225002E722BB11
:10005300FE02E32289828A83E49322BB010CE582B8
:1000630029F582E5833AF583E0225006E92582F8F3
:10007300E622BBFE06E92582F8E222E58229F58223
:10008300E5833AF583E49322BB0110E58229F582E7
:10009300E5833AF583E0F5F0A3E0225009E92582F0
:1000A300F886F008E622BBFE0AE92582F8E2F5F0BD
:1000B30008E222E5832AF583E993F5F0A3E9932285
:1000C300BB010789828A8302011C5005E9F80201FA
:1000D30013BBFE05E9F802012589828A8302012EFA
:1000E300BB010DE58229F582E5833AF58302011C04
:1000F3005007E92582F8020113BBFE07E92582F8C0
:10010300020125E58229F582E5833AF58302012E72
:10011300E6FB08E6FA08E6F922E0FBA3E0FAA3E02F
:10012300F922E2FB08E2FA08E2F922E493FB740104
:1001330093FA740293F9221201000200000040C5F1
:100143001466060001010203010902000902010409
:1001530080320904000000010100050924010001A7
:10016300090001010904010002010300060724013B
:1001730000016500062402010100092403020201B3
:100183000101000624020203000924030104010300
:1001930001000624020105000924030206010501EA
:1001A30000062402020700092403010801070100D5
:1001B3000705810240000006250102040807050126
:1001C3000240000006250102010504030904011889
:1001D30003415350204469676974616C0001120341
:1001E300555342204D4944490001220330313233F3
:1001F3003435363738394142434445460001140308
:10020300436F6E66696720233100011C03417564E7
:10021300696F20436F6E74726F6C00011E034D494A
:1002230044492053747265616D696E6700FF01CDA7
:10023300FF01D1FF01E0FF01ECFF0200FF020DFF10
:10024300021EFF013AFF014CFF023007E4F5BF53E2
:10025300D9BFF5D9227BFF7A0279458B098A0A89AE
:100263000B53E6FD1136E4FF74212FF8E4F60FBFBC
:100273002BF6AB09AA0AA90B11C37843A60308A658
:100283000208A601AB09AA0AA90B90000311E3789F
:1002930046A60308A60208A601AB09AA0AA90B9061
:1002A300000611E37849A60308A60208A601AB09D4
:1002B300AA0AA90B900009115E7822F653A98F436D
:1002C300D720759601759708E59620E7FB75960B81
:1002D30075970FE59620E7FB712CE5C9A2E6782315
:1002E300500476038002760143E602759601759702
:1002F30001E59620E7FB7F002275DE08E4F5FE2288
:10030300AF885388AFEF5440FEEF54104E4288221B
:1003130075A8802275E24022758E0875892043886E
:10032300402275F2DF75D520227833760143D780DA
:1003330043D7402275AC4075B5FF75B4EF43D21077
:10034300228E108F1122C0E0C0F0C083C082C0D0C3
:1003530075D000C000C001C002C003C004C005C006
:1003630006C007113FF1D88F0CF1E38F0DF1FC8F1D
:100373000E1208078F0FE50C30E32C91337144788C
:1003830034E6FF30E10618E66403600AEF30E20961
:100393007833E6B40203430D017842E630E10818EE
:1003A300E6B40303430E02E50C30E20B9100E5C90A
:1003B300A2E64003430C01E50C30E1029158E50C41
:1003C30030E002F1A9E50D30E103120ACDE50E306C
:1003D300E103120929E50D30E002D102AF0FB1F7B5
:1003E3001140D007D006D005D004D003D002D001ED
:1003F300D000D0D0D082D083D0F0D0E03278337622
:1004030001783A76067841760675960F75978FE5EB
:100413009620E7FB759601759701E59620E7FB7536
:10042300960B75970FE59620E7FB7F03915C0141DF
:100433007F0DAD07ED4480F596E59620E7FBAF977A
:10044300EF7F00FEED144480F596E59620E7FBADC3
:1004530097ED4207227824E6FF8F127823E6F513FF
:10046300C394054008E51294055002D1C5E512B4C2
:1004730005047824A6137823A612E51365126006F3
:10048300AD12AF13F1CA227511FF7827E6FC08E617
:10049300FDEC6002A1417825E6541F6002A141787A
:1004A3002CE618466002A14118E618466002A141F5
:1004B3007823E664047044ED4C601878468603089C
:1004C300E6FA08E6F9900005115E782866700218CE
:1004D300E6706B7828E67821F67846860308E6FA14
:1004E30008E6F9900005115E782866700218E67038
:1004F3004AD200B1447F06915C80407823E66406CB
:10050300703C7827E6FE08E6FF4E601678468603C1
:1005130008E6FA08E6F9900005115EB50720E4B590
:10052300061C7828E67821F67828E6184670087FB6
:1005330004915CD1C58004C200B144E4F511AF114C
:1005430022300008783A760178417601D201D2024E
:10055300C2037D407C007F01B169C201D202C203A4
:100563007D407C007F01AE07E4FBB1F7300213A8A6
:100573000674107E00088005C333CE33CED8F9FF4E
:100583008013AF0674207E00A807088005C333CE0E
:1005930033CED8F9FFD3ED9FEC9E50034303803055
:1005A300030343034030012043032030020343038A
:1005B30004759611759740E59620E7FB7596128BA7
:1005C30097E59630E72580F9759614759780E5963B
:1005D30020E7FB7596158B97E59620E7FB20020B2A
:1005E300759612E4F597E59620E7FB22F511782A34
:1005F300E6547FFF75960E8F97E59620E7FB2275ED
:1006030010FDE4FFB1F712081F4005120812501D38
:10061300759611E4F597E59620E7FB7596117597A6
:1006230080E59620E7FB78337601E408F612082C80
:100633004002C1B67834E6FF30E30280737833E6D4
:100643006401705E782DF6120A687F25F1CF8F1052
:10065300E510B4FD0E7825E6FFC41354037004D1EE
:10066300E68F10E4FFB1F7E5107033782CE61846F7
:10067300700D759611759748E59630E73680F975D4
:100683009611759740E59620E7FB7825E620E7234A
:100693007833E66403601C08E64408F68015F1B677
:1006A30080117833E6B4030512085080067834E6E7
:1006B3004402F67833E6B402081208384003120BFA
:1006C300DD22E5E6A2E1920053E6FD751401AF14C5
:1006D300120D6A0514E514C3940340F2300003437A
:1006E300E60222E4FF7826E6B40C0050569006F7A3
:1006F300F828287302071B02072002074602072572
:1007030002074602072A02072E02074602073302A0
:10071300073802073C02074112105A8028120DFDC8
:100723008023121109801EF149801A120F4A801585
:10073300120E988010918A800C120F1180071211EB
:100743008E80027FFF227511FF7827E6FE08E6FF01
:10075300C39480EE9400504B782CE618467044788E
:1007630025E6541F703D782AE6184670367823E64E
:10077300B4030AEF4E60177F04915C80117823E67F
:10078300B4040E7828E6184670047F03915CE4F500
:1007930011E511700EF5967828E64480F597E596F5
:1007A30020E7FBAF11227823E6C3940240047F05C0
:1007B300915C22E4FFB1F77833760575961175974E
:1007C30060E59620E7FB228F148D15228F117FFDA4
:1007D300227F178135759686E59620E7FBAF972232
:1007E300759682E59620E7FBAF9722D3228F148D6F
:1007F300158A168B17E4FEFF22759684E59620E78B
:10080300FBAF972275968EE59620E7FBAF9722758F
:100813009691E59620E7FBE597A2E422759691E58C
:100823009620E7FBE597A2E222759691E59620E7ED
:10083300FBE5971322759691E59620E7FBE597A2D2
:10084300E122759696E59620E7FBAF97227834E68A
:1008530013920011458F11C37832E69F18E6940076
:10086300500E7833760108E64402F67512F2805989
:10087300782E860308E6FA08E6F9AD11E4FF11E5E0
:10088300AF117E007830EF26F618EE36F6C37832D5
:10089300E69FFF18E69EFEF608EFF6E4F512EF4E2C
:1008A300701CE51164406016759611759748E596BE
:1008B30020E7FB7833760108E654FEF6800B759645
:1008C30011759740E59620E7FB300015E511FB7A9B
:1008D300007831E6F51808E6F519AD12E4FF1207C2
:1008E300F0228F138D148B158A168917E514D39470
:1008F300004032E59620E7FBE51344E0F596E51565
:100903001460102403601624FE701AAD17AB13AFE6
:1009130014410BAC16AD17AB13AF144147AD17AB76
:1009230013AF14512822C2007F011205F731FE5084
:1009330014759694E59620E7FB5397BFE59620E759
:100943000221F180F731F2400221F11207D48F1016
:100953007841E66403600A08E64402F67511F980FB
:100963006CC37840E6951018E69400500E784176F3
:100973000108E64402F67511F28052783C860308BA
:10098300E6FA08E6F9AD107F0111E57842E654FD79
:10099300F6AF107E00C37840E69FF618E69EF61881
:1009A300EF26F618EE36F67840E618466006E510B0
:1009B3006440600678417601D200E4F5117596949F
:1009C300E59620E7FB5397FEE59620E7FB7842E6A2
:1009D30030E01B30000354FEF6E510FB7A00783F4D
:1009E300E6F51808E6F519AD117F021207F0227536
:1009F3009694E59620E7FBE5971322759694E59682
:100A030020E7FBE597A2E622A8051FEF600AE5961B
:100A130020E7FBA6970880F2E59620E7FBEB44204E
:100A2300F596A69722A8051FEF600BE59620E7FB36
:100A3300E597F20880F1E59620E7FBEB4420F59675
:100A4300E597F2228D828C831FEF600BE59620E7FA
:100A5300FBE597F0A380F1E59620E7FBEB4420F557
:100A630096E597F022751125A9117A007B007D0880
:100A7300E4FF11E5E5112402F8E6FC08E6FAECFFD1
:100A8300EAFEE5112402F8A60608A607E5112404E8
:100A9300F8E6FC08E6FAECFFEAFEE5112404F8A602
:100AA3000608A607E5112406F8E6FC08E6FAECFFBB
:100AB300EAFEE5112406F8A60608A6072275969114
:100AC300E59620E7FBE597A2E5227F011205F751A2
:100AD300C0500F759611E4F597E59620E702617013
:100AE30080F7783AE66402600261707838E6FE08BF
:100AF300E6FFD39440EE940040047F4080008F10C3
:100B03007E00C37839E69FF618E69EF618EF26F6C0
:100B130018EE36F6783BE61392007838E6FE08E6E0
:100B2300FFD39400EE94004023D3EF9440EE94005F
:100B330040047D4080047839E6FD7835860308E675
:100B4300FA08E6F9D2017F0171778009783BE65410
:100B5300FEF6187601300015E510FB7A007838E6CA
:100B6300F51808E6F519E4FD7F011207F022C2012A
:100B73007D01E4FF8F148D158B168A178918E5966E
:100B830020E7FBE5144420F596E5161460122403D0
:100B9300601814601D147022AD18AF1591E1801A0E
:100BA300AC17AD18AF15B1098010AD18AF1591F59D
:100BB3008008AC17AD18AF15B11F30011CE514D375
:100BC30094004015AF141205F7759691E59620E74A
:100BD300FB439701E59620E7FB227834E613920066
:100BE3007831E6FE08E6FFC39440EE940040047FAC
:100BF3004080008F11851112782DE6FF547F640128
:100C03007059EF30E72508860308E6FA08E6F9C2CB
:100C1300017D02E4FF71777830740226F618E4361A
:100C2300F615111511782DE6547FF6E4F513E51149
:100C3300C313FFE513C39F503E782E860308E6FADD
:100C430008E6F971717830740126F618E436F67BFC
:100C5300FF7A0079127171051380D3782E86030809
:100C6300E6FA08E6F9C201AD11E4FF71777830E5E1
:100C73001126F618E436F67834E654FBF6C37832D8
:100C8300E69512FF18E69400FEF608EFF64E701E86
:100C93007834E620E41875961175970AE59620E7EF
:100CA300FB78337601E4782DF67834F68018759660
:100CB30011759702E59620E7FB7832E61846700631
:100CC3007834E654EFF6300014E512FB7A007831FD
:100CD300E6F51808E6F519E4FDFF1207F022A8056A
:100CE300AE071FEE600BE59620E7FBE6F59708805D
:100CF300EF22A805AE071FEE600BE59620E7FBE2A7
:100D0300F5970880EF228D828C83AE071FEE600B70
:100D1300E59620E7FBE0F597A380EF228D828C8395
:100D2300AE071FEE600CE59620E7FBE493F597A36F
:100D330080EE221205F7759611759708E59620E760
:100D4300FB759691E59620E7FBE59720E3F375960F
:100D530011759708E59620E7FB759691E59620E7D0
:100D6300FBE59720E3F3228F15E4F517E5156005FE
:100D7300C394034007B1C77517FC803FE5E6A2E1C2
:100D8300920153E6FDE51575F007A4242EF98916A3
:100D9300E5162405F8E664016021E51524FE6009E3
:100DA30004700A7F01B13680047F01B1C9E51624BE
:100DB30005F87601E5162406F8E4F630010343E668
:100DC30002AF172280FE1205F7759614759710E58A
:100DD3009620E7FB759694E59620E7FBE59720E4DC
:100DE300F3759614759710E59620E7FB759694E5D1
:100DF3009620E7FBE59720E4F3227511FF782CE6B4
:100E030018466002C1957825E6541F24FE6002C18E
:100E1300957828E61846707A7829E6FE08E6547F26
:100E2300FF4E700D7823E6C394044005E4F511806A
:100E330061C3EF9403EE940050587823E664067080
:100E4300511205EF782AE630E70B75961175974036
:100E5300E59620E7FB782AE620E718759694E59651
:100E630020E7FB5397DFE59620E7FB439780E59662
:100E730020E7FB782AE6247F600F248070147841F2
:100E8300E66403600D76018009783AE66402600245
:100E93007601AF11227FFF782AE61846703818E6EC
:100EA30018467032782CE66401184670297825E6D6
:100EB300FE30E722541F701E7823E6B404087BFF3C
:100EC3007A007912800C7823E6B4060A7B007A0054
:100ED3007921D1DAE4FF227D017C007833E66401D5
:100EE300702B782EA60308A60208A60108A60408FC
:100EF300A60508760208F6ED543F7011782CE66DCE
:100F0300700318E66C60067834E64410F6227829FC
:100F1300E6FE08E67DFFC39402EE94005026782C8B
:100F2300E664011846701D7828E618467016782581
:100F3300E6B481107823E6B4060A7BFF7A007912BF
:100F4300D1DAE4FDAF0522E4FDFC7515FF7825E653
:100F5300648060030210577827E6FE08E6F511EE79
:100F6300FFE46003021035EF24FE602A14604E2470
:100F7300026003021035E5116003021035784386E1
:100F83000308E6FA08E6F98B128A13F514120045F2
:100F93007C00FD021035E5116003021035784686AA
:100FA3000308E6FA08E6F98B128A13F51490000297
:100FB30012008BFAE5F0FFEAFCEFFD8075784986B5
:100FC3000308E6FA08E6F975F003E511A4F582854E
:100FD300F0831200E38B128A138914E511700BFC62
:100FE3007D04782DE65480F680487829E6FE08E6ED
:100FF300FF4E600AEF64097003EE64047034E51178
:10100300C3782296502CAB12AA13A9149000011294
:10101300005E7C00FD120045547FFF782DE654806E
:101023004FFFF674012514F514E43513F513EF445B
:1010330080F6ED4C601E782BE6FE08E6FFD3ED9FAD
:10104300EC9E4004AC06AD07AB12AA13A914120E12
:10105300DEE4F515AF15227511FF782CE66402184E
:1010630046600221067828E61846600221067825A4
:10107300E6FF20E70221067823E6C3940450022109
:1010830006E4F51AF51BEF541F14601814602324AB
:10109300027061782AE61846705A1207EE505243DE
:1010A3001A01804DC3782AE6940218E6940050444E
:1010B300803F7829E6FE08E6FFAC06547F4C7008B3
:1010C3007823E6B4040280297823E6B40626EF24C5
:1010D3007F60122480701D7841E6B40606751A01FC
:1010E300751B00800C783AE6B40606751A01751B69
:1010F30000E4F511E511700BFB7A00791A7D02FC0F
:10110300120EDEAF11227511FF782CE618467078A7
:101113007825E6541F24FE706F7829E6FE08E6540E
:101123007FFF4E700D7823E6C394044005E4F51168
:101133008056C3EF9403EE9400504D7828E618468A
:1011430070467823E66406703F1205EF782AE6308E
:10115300E70B759611759710E59620E7FB782AE65D
:1011630020E710759694E59620E7FB439720E596D4
:1011730020E7FB782AE6247F600A2480700A7841FE
:1011830076068004783A7606AF11227FFF782AE646
:10119300FE7828E6FDEEC39402501B7823E6B406DE
:1011A30015782CE61846700EED700B7825E6541F63
:0711B300FEBE0102E4FF2271
:00000001FF
