:020000040000FA
:1000000002036C0000228F26E526C39403400411EE
:1000100028D322E52675F007A42453F9E92405F82E
:10002000E6B40102C322D32280FE2202188F43B21B
:020030000322A9
:0F0033000218ED7BFF7A057906E17D75A902229F
:100043000208EBC10AC10DC10EC10BC10C010800AE
:10005300010900010A00010D00020B000001130059
:10006300011400021500000217000000439810223B
:1000730002198EBB010689828A83E0225002E7229D
:10008300BBFE02E32289828A83E49322BB010CE54F
:100093008229F582E5833AF583E0225006E9258239
:1000A300F8E622BBFE06E92582F8E222E58229F57D
:1000B30082E5833AF583E49322EF8DF0A4A8F0CF91
:1000C3008CF0A428CE8DF0A42EFE22BC000BBE0023
:1000D30029EF8DF084FFADF022E4CCF875F008EF42
:1000E3002FFFEE33FEEC33FCEE9DEC984005FCEE67
:1000F3009DFE0FD5F0E9E4CEFD22EDF8F5F0EE8498
:1001030020D21CFEADF075F008EF2FFFED33FD405C
:1001130007985006D5F0F222C398FD0FD5F0EA22D6
:10012300BB0110E58229F582E5833AF583E0F5F01A
:10013300A3E0225009E92582F886F008E622BBFEF7
:100143000AE92582F8E2F5F008E222E5832AF5833D
:10015300E993F5F0A3E99322E88FF0A4CC8BF0A404
:100163002CFCE98EF0A42CFC8AF0EDA42CFCEA8E86
:10017300F0A4CDA8F08BF0A42DCC3825F0FDE98FA9
:10018300F0A42CCD35F0FCEB8EF0A4FEA9F0EB8FA0
:10019300F0A4CFC5F02ECD39FEE43CFCEAA42DCE6D
:1001A30035F0FDE43CFC2275F008758200EF2FFF6B
:1001B300EE33FECD33CDCC33CCC58233C5829BED3C
:1001C3009AEC99E58298400CF582EE9BFEED9AFD40
:1001D300EC99FC0FD5F0D6E4CEFBE4CDFAE4CCF9F0
:1001E300A88222B800C1B90059BA002DEC8BF08463
:1001F300CFCECDFCE5F0CBF97818EF2FFFEE33FE31
:10020300ED33FDEC33FCEB33FB10D703994004EBE8
:1002130099FB0FD8E5E4F9FA227818EF2FFFEE33B4
:10022300FEED33FDEC33FCC933C910D7059BE99AC6
:100233004007EC9BFCE99AF90FD8E0E4C9FAE4CC57
:10024300FB2275F010EF2FFFEE33FEED33FDCC33C1
:10025300CCC833C810D7079BEC9AE899400AED9BAA
:10026300FDEC9AFCE899F80FD5F0DAE4CDFBE4CC89
:10027300FAE4C8F922EB9FF5F0EA9E42F0E99D42C9
:10028300F0E89C45F022E8600FECC313FCED13FD8E
:10029300EE13FEEF13FFD8F122BB010789828A8395
:1002A30002034E5005E9F8020345BBFE05E9F802D7
:1002B300035789828A83020360BB010DE58229F516
:1002C30082E5833AF58302034E5007E92582F8025B
:1002D3000345BBFE07E92582F8020357E58229F5AA
:1002E30082E5833AF583020360EC8EF0A4CCC5F07B
:1002F300CCCDF8EFA4CEC5F02DFDE43CFCE8A42E54
:10030300C8C5F03DFDE43CFCEFA4FFE5F028FEE4A6
:100313003DFDE43CFC22EF4E6012EF60010EEDBBAD
:10032300010B89828A83F0A3DFFCDEFA2289F05075
:1003330007F709DFFCA9F022BBFEFCF309DFFCA9E8
:10034300F022E6FB08E6FA08E6F922E0FBA3E0FA6E
:10035300A3E0F922E2FB08E2FA08E2F922E493FBC4
:10036300740193FA740293F922120005787FE4F67C
:10037300D8FD7581700203B602054EE493A3F8E439
:1003830093A34003F68001F208DFF48029E493A3EA
:10039300F85407240CC8C333C4540F4420C8834003
:1003A30004F456800146F6DFE4800B0102040810D2
:1003B300204080900046E47E019360BCA3FF543F3D
:1003C30030E509541FFEE493A360010ECF54C0250A
:1003D300E060A840B8E493A3FAE493A3F8E493A3FA
:1003E300C8C582C8CAC583CAF0A3C8C582C8CAC55E
:1003F30083CADFE9DEE780BE12010002000000408D
:10040300C514660600010102030109028500020109
:1004130004803209040000000101000509240100E1
:100423000109000101090401000201030006072478
:1004330001000161000624020101000924030202F4
:10044300010101000624020203000924030104013F
:100453000301000624020105000924030206010525
:100463000100062402020700092403010801070111
:100473000007058102400000062501020408070564
:1004830001024000000625010201050403090401DD
:100493001803415350204469676974616C00011269
:1004A30003555342204D4944490001220330313260
:1004B3003334353637383941424344454600011415
:1004C30003436F6E66696720233100011C03417586
:1004D30064696F20436F6E74726F6C00011E034D6D
:1004E3004944492053747265616D696E6700FF0466
:1004F3008EFF0492FF04A1FF04ADFF04C1FF04CEED
:10050300FF04DFFF03FBFF040DFF04F1071217B223
:100513008F267E007F037D007B007A00790E7119A0
:10052300E52630E30575107F8008E52630E4037582
:100533001001E52630E505750F018008E52630E654
:1005430003750F7FE5265407F50E22F132C200C270
:1005530001C20FB110E50E6401702775220B7523DC
:10056300B0752450F5EAF5FC20000875EC7F75257D
:100573007F8005E4F5ECF525B200D1723002034328
:10058300E602E50E6402702775220B7523B075240D
:1005930051F5EAF5EC20010875FC7F75257F800590
:1005A300E4F5FCF525B201D17230020343E602E51E
:1005B3000F601CE4F5ECF5FC75220B7523B0752474
:1005C30052850F25850FEAD17230020343E602E517
:1005D30010601CE4F5ECF5FC75220B7523B0752453
:1005E300538510258510EAD17230020343E6027F5A
:1005F30002110640191212F1BF06137B017A00792A
:1006030014752A00752B04D2037F021212F6200FF1
:1006130002A156C20F900015E064B06002A156A378
:10062300E024AF601B14602814603424036002A12B
:1006330056900017E025E0F5FCE4F5ECF5EAA15649
:10064300E4F5FC900017E025E0F5ECE4F5EAA156AB
:10065300E4F5FCF5EC900017E025E0F5EAA156E49B
:10066300F5FCF5EC900017E0FF25E0F5EAA156E56F
:10067300E6A2E1920253E6FD7B007A007922752A15
:1006830000752B04D2037F018F268B278A288929A3
:10069300E526600A146007800011287FFC22E52606
:1006A300600A7848E6640660037FF722E52675F062
:1006B30007A42453F9AF01EF2405F8E6FE640160B3
:1006C30009EE7FFEB405027FFB22E5E6A2E1920478
:1006D30053E6FDAA28A929A807A62708A60208A663
:1006E30001EF2403F8A62A08A62BEF2405F87602C7
:1006F300A203E4335401FEEF2406F8E654FE4EF65B
:10070300E52614600B04701E7859E64404F680163F
:10071300D3E52B9440E52A940040047D408004AF48
:100723002BAD07120CED30040343E6027F00228554
:10073300BF2612081C120889120890120897120883
:100743002912087512086412089E1208DA1208D6D4
:1007530012086E1208A81208B5112E113E1208B91C
:100763001208301208BD12084612087C116F1208D5
:100773005012085D11368526BF228B278A288929C6
:1007830053E6FD112AE4FF74462FF8E4F60FBF2B5E
:10079300F6AB27AA28A929519C7868A60308A602C4
:1007A30008A601AB27AA28A92990000351BC786B9E
:1007B300A60308A60208A601AB27AA28A929900028
:1007C3000651BC786EA60308A60208A601AB27AAA9
:1007D30028A929900009118F7847F653A98F43D789
:1007E30020759601759708E59620E7FB75960B75BE
:1007F300970FE59620E7FB1212E6E5C9A2E67848D3
:10080300500476038002760143E6027596017597DC
:1008130001E59620E7FB7F0022E4F5BF53D9BF75BE
:10082300D90843D8402275DE08E4F5FE22AF885389
:1008330088AF758C06758A06EF5440FEEF54104E50
:10084300428822758E027589024388102275AC4056
:1008530075B5FF75B4F843D2102275E68275A8E02A
:100863002275A5C175F2DF75D53E2275E24375E1A8
:10087300022275A44375D43F2275A20B43A14053B2
:10088300F8F343F8012275DA42E4F5FC2275DB4202
:10089300E4F5EA2275DC42E4F5EC2275A60175F372
:1008A300DF75D6202275BC2875BA1F75BB0443E8D3
:1008B300802275D10822E4F5AF22E59154045391C7
:1008C300FB7595F87594307593F8759230439104E0
:1008D30042912275AE072275A738C2B4C2B5C2B61B
:1008E300228E358F36B2B422C0E0C0F0C083C082FE
:1008F300C0D075D000C000C001C002C003C004C096
:1009030005C006C0071210028F3112100D8F32126C
:1009130010188F331210238F34E53130E32C31A0BC
:1009230011E47859E6FF30E10618E66403600AEF44
:1009330030E2097858E6B402034332017867E630BF
:10094300E10818E6B40303433302E53130E20C1245
:100953001780E5C9A2E64003433101E53130E102E6
:1009630031C5E53130E002F104E53230E102D17303
:10097300E53330E102F121E53230E0027166AF3454
:10098300715BD007D006D005D004D003D002D001CC
:10099300D000D0D0D082D083D0F0D0E0327F0DAD64
:1009A30007ED4480F596E59620E7FBAF97EF7F00D0
:1009B300FEED144480F596E59620E7FBAD97ED42F6
:1009C30007227849E6FF8F377848E6F538C3940560
:1009D3004008E537940550029109E537B4050478DA
:1009E30049A6387848A637227536FF784CE6FC08C6
:1009F300E6FDEC600241A5784AE6541F600241A57A
:100A03007851E61846600241A518E618466002418F
:100A1300A57848E664047046ED4C6019786B86034C
:100A230008E6FA08E6F990000512008F784D667023
:100A33000218E6706D784DE67846F6786B86030803
:100A4300E6FA08E6F990000512008F784D66700209
:100A530018E6704BD20651A87F0631C98041784809
:100A6300E66406703D784CE6FE08E6FF4E601778B4
:100A73006B860308E6FA08E6F990000512008FB5C5
:100A83000720E4B5061C784DE67846F6784DE6185F
:100A93004670087F0431C991098004C20651A8E455
:100AA300F536AF3622300608785F76017866760130
:100AB300D207D208C2097D407C007F0151CDC20715
:100AC300D208C2097D407C007F01AE07E4FB715B65
:100AD300300813A80674107E00088005C333CE3394
:100AE300CED8F9FF8013AF0674207E00A8070880D4
:100AF30005C333CE33CED8F9FFD3ED9FEC9E50031D
:100B0300430380300903430340300720430320306D
:100B13000803430304759611759740E59620E7FB98
:100B23007596128B97E59630E72580F975961475BF
:100B33009780E59620E7FB7596158B97E59620E75A
:100B4300FB20080B759612E4F597E59620E7FB2248
:100B5300F536784FE6547FFF75960E8F97E596200E
:100B6300E7FB227535FDE4FF715B12103B40051274
:100B7300102E501D759611E4F597E59620E7FB7549
:100B83009611759780E59620E7FB78587601E4087F
:100B9300F612104850627859E6FF30E30280567827
:100BA30058E6640170417852F61211A2784AE6FFC2
:100BB300C41354037004912A8F35E4FF715BE53548
:100BC30070217851E61846700D759611759748E5B2
:100BD3009630E72480F9759611759740E59630E7CE
:100BE3001780F9F1EE80117858E6B4030512106C02
:100BF30080067859E64402F67858E6B402071210E4
:100C0300544002B16422E5E6A2E1920653E6FD7583
:100C13003901AF3912123B0539E539C3940340F268
:100C230030060343E60222E4FF784BE6B40C00509F
:100C330056900C3BF8282873020C5F020C64020CDC
:100C43008A020C69020C8A020C6E020C72020C8A74
:100C5300020C77020C7C020C80020C851214C980F2
:100C63002812137C802312167A801E918D801A120B
:100C730015718015121417801031EB800C1214902B
:100C830080071216FF80027FFF227536FF784CE63D
:100C9300FE08E6FFC39480EE9400504B7851E618AB
:100CA300467044784AE6541F703D784FE618467004
:100CB300367848E6B4030AEF4E60177F0431C980E3
:100CC300117848E6B4040E784DE6184670047F03A5
:100CD30031C9E4F536E536700EF596784DE6448075
:100CE300F597E59620E7FBAF3622785A860308E6A8
:100CF300FA08E6F9D2077F018F398D3A8B3B8A3C9C
:100D0300893DE59620E7FBE5394420F596E53B145C
:100D130060132403601A146020147026AD3DAF3AAB
:100D230012172B801DAC3CAD3DAF3A12173F80121A
:100D3300AD3DAF3A1217558009AC3CAD3DAF3A1209
:100D4300176930071BE539D394004014AF39715B41
:100D5300759691E59620E7FB439701E59620E7FB1F
:100D6300227859E61392067856E6FE08E6FFC39406
:100D730040EE940040047F4080008F3685363778FC
:100D830052E6FF547F64017065EF30E72508860360
:100D930008E6FA08E6F9C2077D02E4FF91FB7855FD
:100DA300740226F618E436F6153615367852E654EC
:100DB3007FF6E4F538E536C313FFE538C39F504AA1
:100DC3007853860308E6FA08E6F9C2077D01E4FFD3
:100DD30091FB7855740126F618E436F67BFF7A000A
:100DE3007903C2077D01E4FF91FB053880C778537F
:100DF300860308E6FA08E6F9C207AD36E4FF91FB7D
:100E03007855E53626F618E436F67859E654FBF6B7
:100E1300C37857E69537FF18E69400FEF608EFF619
:100E23004E701E7859E620E41875961175970AE5F9
:100E33009620E7FB78587601E47852F67859F680E5
:100E430018759611759702E59620E7FB7857E61813
:100E53004670067859E654EFF6300613E537FB7A09
:100E6300007856E6F53D08E6F53EE4FDFFF1112274
:100E73007F01715B1211FA500D759611E4F597E538
:100E83009630E77C80F9785FE664027073785DE6FC
:100E9300FE08E6FFD39440EE940040047F408000B8
:100EA3008F357E00C3785EE69FF618E69EF618EF50
:100EB30026F618EE36F67860E6139206785DE6FEBF
:100EC30008E6FFD39400EE94004015D3EF9440EE70
:100ED300940040047D408004785EE6FD91ED800936
:100EE3007860E654FEF6187601300614E535FB7A91
:100EF30000785DE6F53D08E6F53EE4FD7F01F1117E
:100F0300227848E6C3940240047F0531C9228A3B14
:100F13008B3CED7005BF0202D20FE4FEFF22C20636
:100F23007F01715B1212CD5014759694E59620E7FC
:100F3300FB5397BFE59620E702E1E980F71212DA47
:100F43004002E1E9F1EA8F357866E66403600A0856
:100F5300E64402F67536F9806DC37865E695351873
:100F6300E69400500E7866760108E64402F675367C
:100F7300F280537861860308E6FA08E6F9AD357F17
:100F8300011211017867E654FDF6AF357E00C37890
:100F930065E69FF618E69EF618EF26F618EE36F687
:100FA3007865E618466006E535644060067866763F
:100FB30001D206E4F536759694E59620E7FB539740
:100FC300FEE59620E7FB7867E630E01A3006035427
:100FD300FEF6E535FB7A007864E6F53D08E6F53E76
:100FE300AD367F02F111227F1721A2E4FF715B78F6
:100FF300587605759611759760E59620E7FB22757F
:101003009686E59620E7FBAF9722759682E59620B4
:10101300E7FBAF9722759684E59620E7FBAF97220F
:1010230075968EE59620E7FBAF9722759691E59628
:1010330020E7FBE597A2E422759691E59620E7FB6E
:10104300E597A2E222759691E59620E7FBE59713D3
:1010530022759691E59620E7FBE597A2E122759626
:1010630096E59620E7FBAF97227859E6139206118F
:10107300618F36C37857E69F18E69400500E785870
:10108300760108E64402F67537F2805978538603F1
:1010930008E6FA08E6F9AD36E4FF3101AF367E0023
:1010A3007855EF26F618EE36F6C37857E69FFF1805
:1010B300E69EFEF608EFF6E4F537EF4E701CE536D4
:1010C30064406016759611759748E59620E7FB789E
:1010D30058760108E654FEF6800B75961175974015
:1010E300E59620E7FB300615E536FB7A007856E6F1
:1010F300F53D08E6F53EAD37E4FF120F11228F38B8
:101103008D398B3A8A3B893CE539D394004032E5EB
:101113009620E7FBE53844E0F596E53A14601024A1
:1011230003601624FE701AAD3CAB38AF398013ACA4
:101133003BAD3CAB38AF398045AD3CAB38AF393113
:101143006222A8051FEF600AE59620E7FBA6970831
:1011530080F2E59620E7FBEB4420F596A69722A8BC
:10116300051FEF600BE59620E7FBE597F20880F19A
:10117300E59620E7FBEB4420F596E597F2228D8276
:101183008C831FEF600BE59620E7FBE597F0A380C8
:10119300F1E59620E7FBEB4420F596E597F0227501
:1011A300364AA9367A007B007D08E4FF3101E53633
:1011B3002402F8E6FC08E6FAECFFEAFEE536240230
:1011C300F8A60608A607E5362404F8E6FC08E6FABE
:1011D300ECFFEAFEE5362404F8A60608A607E53682
:1011E3002406F8E6FC08E6FAECFFEAFEE5362406F8
:1011F300F8A60608A60722759691E59620E7FBE573
:1012030097A2E522120B5B759611759708E5962058
:10121300E7FB759691E59620E7FBE59720E3F375E9
:101223009611759708E59620E7FB759691E596204C
:10123300E7FBE59720E3F3228F3AE4F53CE53A60D8
:1012430005C394034008120028753CFC803FE5E683
:10125300A2E1920753E6FDE53A75F007A42453F99A
:10126300893BE53B2405F8E664016021E53A24FE69
:10127300600904700A7F01510780047F015199E5D9
:101283003B2405F87601E53B2406F8E4F630070332
:1012930043E602AF3C22120B5B759614759710E57B
:1012A3009620E7FB759694E59620E7FBE59720E407
:1012B300F3759614759710E59620E7FB759694E5FC
:1012C3009620E7FBE59720E4F322759694E59620B4
:1012D300E7FBE597A2E622759694E59620E7FBE502
:1012E3009713227858760143D78043D74022784812
:1012F300E6FF228F268B278A288929E526600C247E
:10130300FE600880001200287FFC22E526600A7830
:1013130048E6640660037FF722E52675F007A424F8
:1013230053F9AF01EF2405F8E6FE64016009EE7F8F
:10133300FEB405027FFB22E5E6A2E1920453E6FD3B
:10134300AA28A929A807A62708A60208A601EF2408
:1013530003F8A62A08A62BEF2405F87603A203E4D4
:10136300335401FEEF2406F8E654FE4EF654F7F626
:1013730030040343E6027F00227536FF7851E618F6
:101383004660028114784AE6541F24FE60028114E9
:10139300784DE61846707A784EE6FE08E6547FFFED
:1013A3004E700D7848E6C394044005E4F536806139
:1013B300C3EF9403EE940050587848E664067051E6
:1013C300120B53784FE630E70B759611759740E58E
:1013D3009620E7FB784FE620E718759694E596206C
:1013E300E7FB5397DFE59620E7FB439780E59620DD
:1013F300E7FB784FE6247F600F248070147866E65D
:101403006403600D76018009785FE664026002760A
:1014130001AF36227FFF784FE61846703818E6187A
:101423004670327851E6640118467029784AE6FE20
:1014330030E722541F701E7848E6B404087BFF7A15
:10144300007903800C7848E6B4060A7B007A0079B9
:10145300469159E4FF227D017C007858E6640170CF
:101463002B7853A60308A60208A60108A60408A61B
:101473000508760208F6ED543F70117851E66D7059
:101483000318E66C60067859E64410F622784EE6B7
:10149300FE08E67DFFC39402EE940050267851E6E1
:1014A30064011846701D784DE618467016784AE6B2
:1014B300B481107848E6B4060A7BFF7A0079039179
:1014C30059E4FDAF05227536FF7851E664021846EC
:1014D3006002A16E784DE618466002A16E784AE676
:1014E300FF20E702A16E7848E6FEC39404407CE443
:1014F300F511F512EF541F146015146020240270C7
:101503005C784FE618467055431101F536804EC39B
:10151300784FE6940218E694005042803D784EE6F8
:10152300FC08E6FDAA04547F4A7006EEB404028068
:10153300297848E6B40626ED247F60122480701DC6
:101543007866E6B40606751101751200800C785FA3
:10155300E6B40606751101751200E4F536E536703A
:101563000AFB7A0079117D02FC915DAF3622E4FD1E
:10157300FC753AFF784AE664806002C177784CE6EE
:10158300FE08E6F536EEFFE46002C156EF24FE6086
:101593002714604A24026002C156E5366002C15630
:1015A3007868860308E6FA08E6F98B378A38F5394E
:1015B3001200767C00FDC156E5366002C156786B99
:1015C300860308E6FA08E6F98B378A38F53990007E
:1015D30002120123FAE5F0FFEAFCEFFD8075786E55
:1015E300860308E6FA08E6F975F003E536A4F58202
:1015F30085F0831202BC8B378A388939E536700B44
:10160300FC7D047852E65480F68048784EE6FE0866
:10161300E6FF4E600AEF64097003EE64047034E57C
:1016230036C3784796502CAB37AA38A939900001B6
:1016330012008F7C00FD120076547FFF7852E6542F
:10164300804FFFF674012539F539E43538F538EF65
:101653004480F6ED4C601D7850E6FE08E6FFD3EDBE
:101663009FEC9E4004AC06AD07AB37AA38A939916D
:101673005DE4F53AAF3A227536FF7851E6184670C5
:1016830078784AE6541F24FE706F784EE6FE08E62B
:10169300547FFF4E700D7848E6C394044005E4F58B
:1016A300368056C3EF9403EE9400504D784DE61800
:1016B3004670467848E66406703F120B53784FE64F
:1016C30030E70B759611759710E59620E7FB784F79
:1016D300E620E710759694E59620E7FB439720E50F
:1016E3009620E7FB784FE6247F600A2480700A780F
:1016F3006676068004785F7606AF36227FFF784FE2
:10170300E6FE784DE6FDEEC39402501B7848E6B43E
:1017130006157851E61846700EED700B784AE654BC
:101723001FFEBE0102E4FF22A805AE071FEE600BF9
:10173300E59620E7FBE6F5970880EF228D828C8300
:10174300AE071FEE600BE59620E7FBE0F597A3805D
:10175300EF22A805AE071FEE600BE59620E7FBE23C
:10176300F5970880EF228D828C83AE071FEE600C05
:10177300E59620E7FBE493F597A380EE227858766D
:1017830001785F76067866760675960F75978FE50E
:101793009620E7FB759601759701E59620E7FB75A3
:1017A300960B75970FE59620E7FB7F030209C9E4C3
:1017B300F527D2EC20ECFDAFBDAEBE7C0C7DE41270
:1017C30002ECE4FB7A04F9F81201E612199EEF2405
:1017D300FEB40800504C9017E775F003A4C58325A9
:1017E300F0C583730217FF02180902181302181DAC
:1017F30002180402182202180E0218184327088040
:1018030021432748801C43274080174327508012D9
:10181300432710800D43273080084327208003434C
:101823002728208303432701208203432702BF0184
:1018330003432704AF2722E5A1A2E6920DE5F8545E
:101843000C24FF920AD20E2285440885440985445C
:101853000A8F0D8C0B8D0CEB13920BEBA2E1920C08
:10186300200E02113A85A34553F80F300D05300AB7
:1018730002C2FA30F915E5096011300C09A80DE22E
:10188300F5A3050D8003E4F5A3150922C0E0C0F01C
:10189300C083C082C0D075D000C000C001C002C0E8
:1018A30003C004C005C006C00753C87F53C8FBE587
:1018B30013B401117513027F008514447B02E4FD08
:1018C300FC114B800AE513B40305C281751300D0E4
:1018D30007D006D005D004D003D002D001D000D069
:1018E300D0D082D083D0F0D0E032C0E0C0F0C0834B
:1018F300C082C0D075D000C000C001C002C003C008
:1019030004C005C006C007E5F854F0FFF4440F52C5
:10191300F8EF30E747E508602B300B13850C828521
:101923000B83E5A3F0050CE50C7002050B80038522
:10193300A33FD5080C300D05300A02D2FA317A8064
:101943000385080AE509601430F911300C09A80D64
:10195300E2F5A3050D800375A3001509D007D00692
:10196300D005D004D003D002D001D000D0D0D08293
:10197300D083D0F0D0E032751303AFBFE4F5BF7569
:10198300CDFF75CCFC43C8048FBF22C0E053917FC9
:101993000516E51670020515D0E0328F2B8E2A8DC1
:1019A300298C28E47F4EFEFDFCAB2BAA2AA929A88B
:1019B30028D31202785005752C01610AE47FC47E96
:1019C3000AFDFCAB2BAA2AA929A828C31202784036
:1019D30014E47F5A7E0BFDFCA828D312027850052D
:1019E300752C02610AE47F9A7E09FDFCAB2BAA2ABF
:1019F300A929A828C31202784014E47F307E0AFD87
:101A0300FCA828D31202785005752C03610AE47FE1
:101A1300277E06FDFCAB2BAA2AA929A828C31202FC
:101A2300784014E47FBD7E06FDFCA828D31202781B
:101A33005005752C04610AE47F717E07FDFCAB2B16
:101A4300AA2AA929A828C31202784014E47F077E92
:101A530008FDFCA828D31202785005752C05610AED
:101A6300E47F7C7E08FDFCAB2BAA2AA929A828C306
:101A73001202784014E47F127E09FDFCA828D312D9
:101A830002785005752C06807EE47FBE7E06FDFC41
:101A9300AB2BAA2AA929A828C31202784014E47FF1
:101AA300547E07FDFCA828D31202785005752C0735
:101AB3008055E47F4E7E05FDFCAB2BAA2AA929A8FD
:101AC30028C31202784014E47FE47E05FDFCA828B5
:101AD300D31202785005752C08802CE47F8B7E048A
:101AE300FDFCAB2BAA2AA929A828C312027840140B
:101AF300E47F217E05FDFCA828D3120278500575EA
:0A1B03002C098003E4F52CAF2C221E
:00000001FF
