:020000040000FA
:100000000203B000002280FEE4F512F513F514F5AA
:1000100015F516F517D210227BFF7A0579850208AF
:09002000312275DA42E4F5FC22FC
:07002B00021A9643B2032202
:10003300021AF4E4F5BF53D9BF75D90843D8402257
:0E00430002097575DE08E4F5FE2275A9022299
:100053000219F3AF885388AF758C06758A06EF547F
:0D00630040FEEF54104E42882275D1082255
:0D007300021B95758E0275890243881022CC
:10008300021C06BB010689828A83E0225002E72212
:10009300BBFE02E32289828A83E49322BB010CE53F
:1000A3008229F582E5833AF583E0225006E9258229
:1000B300F8E622BBFE06E92582F8E222E58229F56D
:1000C30082E5833AF583E49322BB010689828A831E
:1000D300F0225002F722BBFE01F322F8BB010DE52B
:1000E3008229F582E5833AF583E8F0225006E92573
:1000F30082C8F622BBFE05E92582C8F222EF8DF005
:10010300A4A8F0CF8CF0A428CE8DF0A42EFE22BCA0
:10011300000BBE0029EF8DF084FFADF022E4CCF894
:1001230075F008EF2FFFEE33FEEC33FCEE9DEC98F9
:100133004005FCEE9DFE0FD5F0E9E4CEFD22EDF87F
:10014300F5F0EE8420D21CFEADF075F008EF2FFF22
:10015300ED33FD4007985006D5F0F222C398FD0F0A
:10016300D5F0EA22BB0110E58229F582E5833AF551
:1001730083E0F5F0A3E0225009E92582F886F00830
:10018300E622BBFE0AE92582F8E2F5F008E222E561
:10019300832AF583E993F5F0A3E99322E88FF0A48A
:1001A300CC8BF0A42CFCE98EF0A42CFC8AF0EDA4FB
:1001B3002CFCEA8EF0A4CDA8F08BF0A42DCC38252E
:1001C300F0FDE98FF0A42CCD35F0FCEB8EF0A4FE0E
:1001D300A9F0EB8FF0A4CFC5F02ECD39FEE43CFCA3
:1001E300EAA42DCE35F0FDE43CFC2275F0087582BF
:1001F30000EF2FFFEE33FECD33CDCC33CCC58233AE
:10020300C5829BED9AEC99E58298400CF582EE9BB2
:10021300FEED9AFDEC99FC0FD5F0D6E4CEFBE4CDD0
:10022300FAE4CCF9A88222B800C1B90059BA002D6A
:10023300EC8BF084CFCECDFCE5F0CBF97818EF2F23
:10024300FFEE33FEED33FDEC33FCEB33FB10D70352
:10025300994004EB99FB0FD8E5E4F9FA227818EFFB
:100263002FFFEE33FEED33FDEC33FCC933C910D75A
:10027300059BE99A4007EC9BFCE99AF90FD8E0E467
:10028300C9FAE4CCFB2275F010EF2FFFEE33FEED3D
:1002930033FDCC33CCC833C810D7079BEC9AE8990D
:1002A300400AED9BFDEC9AFCE899F80FD5F0DAE4EF
:1002B300CDFBE4CCFAE4C8F922EB9FF5F0EA9E42C9
:1002C300F0E99D42F0E89C45F022E8600FECC3138F
:1002D300FCED13FDEE13FEEF13FFD8F122BB010774
:1002E30089828A830203925005E9F8020389BBFEDF
:1002F30005E9F802039B89828A830203A4BB010DEB
:10030300E58229F582E5833AF5830203925007E9F2
:100313002582F8020389BBFE07E92582F802039BC5
:10032300E58229F582E5833AF5830203A4EC8EF096
:10033300A4CCC5F0CCCDF8EFA4CEC5F02DFDE43CA4
:10034300FCE8A42EC8C5F03DFDE43CFCEFA4FFE5AA
:10035300F028FEE43DFDE43CFC22EF4E6012EF602A
:10036300010EEDBB010B89828A83F0A3DFFCDEFA69
:100373002289F05007F709DFFCA9F022BBFEFCF34A
:1003830009DFFCA9F022E6FB08E6FA08E6F922E019
:10039300FBA3E0FAA3E0F922E2FB08E2FA08E2F9A0
:1003A30022E493FB740193FA740293F92212000579
:1003B300787FE4F6D8FD75818A0203FA0205CDE45D
:1003C30093A3F8E493A34003F68001F208DFF480DB
:1003D30029E493A3F85407240CC8C333C4540F442B
:1003E30020C8834004F456800146F6DFE4800B0105
:1003F3000204081020408090043FE47E019360BC17
:10040300A3FF543F30E509541FFEE493A360010E9C
:10041300CF54C025E060A840B8E493A3FAE493A3C3
:10042300F8E493A3C8C582C8CAC583CAF0A3C8C5E4
:1004330082C8CAC583CADFE9DEE780BEC10AC10D2F
:10044300C10EC10BC10C011800011900011A0001F2
:100453001D00021B0000015900015A00025B00004D
:10046300025D0000015F00040801040C30040C036A
:10047300010002011000001201000200000040C54B
:10048300146606000101020301090285000201044A
:100493008032090400000001010005092401000164
:1004A30009000101090401000201030006072401F8
:1004B3000001610006240201010009240302020174
:1004C30001010006240202030009240301040103BD
:1004D30001000624020105000924030206010501A7
:1004E3000006240202070009240301080107010092
:1004F30007058102400000062501020408070501E3
:100503000240000006250102010504030904011845
:1005130003415350204469676974616C00011203FD
:10052300555342204D4944490001220330313233AF
:1005330034353637383941424344454600011403C4
:10054300436F6E66696720233100011C03417564A4
:10055300696F20436F6E74726F6C00011E034D4907
:1005630044492053747265616D696E6700FF050D20
:10057300FF0511FF0520FF052CFF0540FF054DFF7B
:10058300055EFF047AFF048CFF0570071217FD8FC9
:100593002B7E007F037D007B007A007956715DE539
:1005A3002B30E30575587F8008E52B30E40375583D
:1005B30001E52B30E5057557018008E52B30E6038F
:1005C30075577FE52B5407F55622F1F4C200C2019B
:1005D300C20F1108121022B18FE5566401702775FE
:1005E300230B7524B0752550F5EAF5FC200008753A
:1005F300EC7F75267F8005E4F5ECF526B200F13437
:1006030030020343E602E5566402702775230B7537
:1006130024B0752551F5EAF5EC20010875FC7F75CA
:10062300267F8005E4F5FCF526B201F134300203A0
:1006330043E602E557601CE4F5ECF5FC75230B7506
:1006430024B07525528557268557EAF134300203C5
:1006530043E602E558601CE4F5ECF5FC75230B75E5
:1006630024B07525538558268558EAF134300203A2
:1006730043E602200F02E11AC20F900118E0FFC403
:10068300540F64017040A3E0F527A3E0F528A3E02D
:10069300F529EF540F24FE601824FC601424FA603B
:1006A3001014600D24FE6004240A700A752A018068
:1006B30008752A028003752A037B007A007927AD27
:1006C3002A121E5C8051900118E0FFC4540F70473A
:1006D300A3E064B07041A3E024AF601A146028144F
:1006E30060272403703190011BE0FF25E0F5FCE453
:1006F300F5ECF5EA8021E4F5FC90011BE0FF25E031
:10070300F5ECE4F5EA80108000E4F5FCF5EC9001EB
:100713001BE0FF25E0F5EA7B007A007923121C85B4
:10072300EF7002A1DAF134200202A1DA43E602A15A
:10073300DAE5E6A2E1920253E6FD7B007A00792333
:10074300752F00753004C2037F018F2B8B2C8A2DEC
:10075300892EE52B600A146007800011067FFC22B6
:10076300E52B600A7862E6640660037FF722E52BD7
:1007730075F007A4246DF9AF01EF2405F8E6FE64D4
:10078300016009EE7FFEB405027FFB22E5E6A2E1EC
:10079300920453E6FDAA2DA92EA807A62C08A602AB
:1007A30008A601EF2403F8A62F08A630EF2405F8C6
:1007B3007602A203E4335401FEEF2406F8E654FE66
:1007C3004EF6E52B14600B04701E7873E64404F6B2
:1007D3008016D3E5309440E52F940040047D40809B
:1007E30004AF30AD07120D7630040343E6027F00F9
:1007F3002285BF2B11361122120960316712004680
:1008030011F311FA310E311811EF3104313A12009C
:100813006C12002E12004D11EB12005631471200DC
:1008230076312D11D411E1120018852BBF228B2CA8
:100833008A2D892E53E6FD120021E4FF74602FF800
:10084300E4F60FBF2BF6AB2CAA2DA92E1202E078EB
:1008530082A60308A60208A601AB2CAA2DA92E90F6
:1008630000031203007885A60308A60208A601ABBD
:100873002CAA2DA92E9000061203007888A603083F
:10088300A60208A601AB2CAA2DA92E9000091200DE
:100893009F7861F653A98F43D72075960175970802
:1008A300E59620E7FB75960B75970FE59620E7FB1A
:1008B3003122E5C9A2E6786250047603800276010C
:1008C30043E602759601759701E59620E7FB7F00E5
:1008D3002275AC4075B5FF75B4E043D2102275E6BE
:1008E3008275A8E075E70222E4F5AF2275AE072210
:1008F30075A44375D43F2275A5C175F2DF75D53E46
:100903002275E24375E10275E3012275A60375F3CF
:10091300DF75D6202275A738C2B4C2B5C2B6227815
:1009230072760143D78043D7402275A20B43A1407F
:1009330053F8F343F8012275BC2875BA1F75BB043D
:1009430043E88022E59154045391FB7595F875941F
:10095300307593F875923043910442912275DB42CE
:10096300E4F5EA2275DC42E4F5EC228E3A8F3BB2E1
:10097300B422C0E0C0F0C083C082C0D075D000C034
:1009830000C001C002C003C004C005C006C007F117
:10099300E38F36121BA58F37121BB08F38121BBB88
:1009A3008F39E53630E32C5129316E7873E6FF3009
:1009B300E10618E66403600AEF30E2097872E6B4F0
:1009C30002034337017881E630E10818E6B40303F4
:1009D300433802E53630E20BF1AEE5C9A2E6400347
:1009E300433601E53630E102514EE53630E002F19F
:1009F3008DE53730E102D1FCE53830E10312152DE6
:100A0300E53730E00271EFAF3971E4D007D006D09B
:100A130005D004D003D002D001D000D0D0D082D0F2
:100A230083D0F0D0E0327F0DAD07ED4480F596E53D
:100A33009620E7FBAF97EF7F00FEED144480F59619
:100A4300E59620E7FBAD97ED4207227863E6FF8F3B
:100A53003C7862E6F53DC394054008E53C940550B7
:100A6300029192E53CB405047863A63D7862A63C06
:100A730022753BFF7866E6FC08E6FDEC6002612E1A
:100A83007864E6541F6002612E786BE618466002B4
:100A9300612E18E618466002612E7862E6640470DF
:100AA30046ED4C60197885860308E6FA08E6F99066
:100AB300000512009F786766700218E6706D78670C
:100AC300E67860F67885860308E6FA08E6F990008A
:100AD3000512009F786766700218E6704BD20671A4
:100AE300317F06515280417862E66406703D786634
:100AF300E6FE08E6FF4E60177885860308E6FA08E7
:100B0300E6F990000512009FB50720E4B5061C78AE
:100B130067E67860F67867E6184670087F045152F6
:100B230091928004C2067131E4F53BAF3B2230065B
:100B3300087879760178807601D207D208C2097DD8
:100B4300407C007F017156C207D208C2097D407CF8
:100B5300007F01AE07E4FB71E4300813A8067410AC
:100B63007E00088005C333CE33CED8F9FF8013AFA0
:100B73000674207E00A807088005C333CE33CED881
:100B8300F9FFD3ED9FEC9E500343038030090343E9
:100B930003403007204303203008034303047596C2
:100BA30011759740E59620E7FB7596128B97E596AE
:100BB30030E72580F9759614759780E59620E7FB55
:100BC3007596158B97E59620E7FB20080B75961213
:100BD300E4F597E59620E7FB22F53B7869E6547F39
:100BE300FF75960E8F97E59620E7FB22753AFDE495
:100BF300FF71E4121BD34005121BC6501D759611DD
:100C0300E4F597E59620E7FB759611759780E596D1
:100C130020E7FB78727601E408F6121BE050627855
:100C230073E6FF30E30280567872E6640170417820
:100C33006CF61217507864E6FFC4135403700491E2
:100C4300B38F3AE4FF71E4E53A7021786BE6184616
:100C5300700D759611759748E59630E72480F97500
:100C63009611759740E59630E71780F9F19A801150
:100C73007872E6B4030512163A80067873E64402E6
:100C8300F67872E6B40207121BEC4002B1ED22E5DE
:100C9300E6A2E1920653E6FD753E01AF3E1210B89F
:100CA300053EE53EC3940340F230060343E60222C9
:100CB300E4FF7865E6B40C005056900CC4F828287D
:100CC30073020CE8020CED020D13020CF2020D1379
:100CD300020CF7020CFB020D13020D00020D0502BC
:100CE3000D09020D0E1212CB802812117E802312E1
:100CF300147C801EB116801A1213738015121219F8
:100D030080105174800C1212928007121501800218
:100D13007FFF22753BFF7866E6FE08E6FFC39480FB
:100D2300EE9400504B786BE6184670447864E654B2
:100D33001F703D7869E6184670367862E6B4030A98
:100D4300EF4E60177F04515280117862E6B4040EAF
:100D53007867E6184670047F035152E4F53BE53BA0
:100D6300700EF5967867E64480F597E59620E7FBE5
:100D7300AF3B227874860308E6FA08E6F9D2077FC8
:100D8300018F3E8D3F8B408A418942E59620E7FBE8
:100D9300E53E4420F596E5401460132403601A14DD
:100DA3006020147026AD42AF3F1217A8801DAC41DE
:100DB300AD42AF3F1217BC8012AD42AF3F1217D204
:100DC3008009AC41AD42AF3F1217E630071BE53E49
:100DD300D394004014AF3E71E4759691E59620E7F5
:100DE300FB439701E59620E7FB227873E61392060F
:100DF3007870E6FE08E6FFC39440EE940040047F5B
:100E03004080008F3B853B3C786CE6FF547F640158
:100E13007065EF30E72508860308E6FA08E6F9C2AD
:100E2300077D02E4FFB184786F740226F618E43676
:100E3300F6153B153B786CE6547FF6E4F53DE53B50
:100E4300C313FFE53DC39F504A786D860308E6FA56
:100E530008E6F9C2077D01E4FFB184786F740126C7
:100E6300F618E436F67BFF7A007903C2077D01E4C6
:100E7300FFB184053D80C7786D860308E6FA08E66E
:100E8300F9C207AD3BE4FFB184786FE53B26F61862
:100E9300E436F67873E654FBF6C37871E6953CFFC7
:100EA30018E69400FEF608EFF64E701E7873E620FF
:100EB300E41875961175970AE59620E7FB78727624
:100EC30001E4786CF67873F68018759611759702BD
:100ED300E59620E7FB7871E6184670067873E654CA
:100EE300EFF6300613E53CFB7A007870E6F542082E
:100EF300E6F543E4FDFFF1EE227F0171E4121BF9F5
:100F0300500D759611E4F597E59630E77C80F978F6
:100F130079E6640270737877E6FE08E6FFD39440BF
:100F2300EE940040047F4080008F3A7E00C37878BF
:100F3300E69FF618E69EF618EF26F618EE36F678D4
:100F43007AE61392067877E6FE08E6FFD39400EE7E
:100F530094004015D3EF9440EE940040047D40800C
:100F6300047878E6FDB1768009787AE654FEF618BF
:100F73007601300614E53AFB7A007877E6F5420805
:100F8300E6F543E4FD7F01F1EE227862E6C39402C5
:100F930040047F05515222E4FF71E47872760575AF
:100FA3009611759760E59620E7FB227872760178B3
:100FB3007976067880760675960F75978FE5962075
:100FC300E7FB759601759701E59620E7FB75960B90
:100FD30075970FE59620E7FB7F0341527F17412B5F
:100FE300759686E59620E7FBAF97228A408B41ED05
:100FF3007029EF64027024900114E0900118F090BE
:101003000115E0900119F0900116E090011AF0909B
:101013000117E090011BF0D20F1122E4FEFF227BA7
:10102300017A017914754800754904D2077F028F4C
:10103300448B458A468947E544600C24FE6008805A
:10104300001200067FFC22E544600A7862E664062B
:1010530060037FF722E54475F007A4246DF9AF011F
:10106300EF2405F8E6FE64016009EE7FFEB4050295
:101073007FFB22E5E6A2E1920853E6FDAA46A947D3
:10108300A807A64508A60208A601EF2403F8A64868
:1010930008A649EF2405F87603A207E4335401FEBA
:1010A300EF2406F8E654FE4EF654F7F630080343F1
:1010B300E6027F00228F3FE4F541E53F6005C394DC
:1010C3000340081200067541FC803FE5E6A2E19269
:1010D3000753E6FDE53F75F007A4246DF98940E564
:1010E300402405F8E664016021E53F24FE6009041D
:1010F300700A7F01311680047F01314AE5402405DF
:10110300F87601E5402406F8E4F630070343E602E7
:10111300AF4122120BE4759611759708E59620E707
:10112300FB759691E59620E7FBE59720E3F375962B
:1011330011759708E59620E7FB759691E59620E7EC
:10114300FBE59720E3F322120BE4759614759710D1
:10115300E59620E7FB759694E59620E7FBE5972057
:10116300E4F3759614759710E59620E7FB7596944E
:10117300E59620E7FBE59720E4F322753BFF786BC8
:10118300E61846600241167864E6541F24FE6002A6
:1011930041167867E61846707A7868E6FE08E654E2
:1011A3007FFF4E700D7862E6C394044005E4F53B7F
:1011B3008061C3EF9403EE940050587862E66406AE
:1011C3007051120BDC7869E630E70B759611759751
:1011D30040E59620E7FB7869E620E718759694E5E5
:1011E3009620E7FB5397DFE59620E7FB439780E5DF
:1011F3009620E7FB7869E6247F600F2480701478DB
:1012030080E66403600D760180097879E664026004
:10121300027601AF3B227FFF7869E61846703818E3
:10122300E618467032786BE66401184670297864D4
:10123300E6FE30E722541F701E7862E6B404087B92
:10124300FF7A007903800C7862E6B4060A7B007AA1
:10125300007960515BE4FF227D017C007872E664D3
:1012630001702B786DA60308A60208A60108A60440
:1012730008A60508760208F6ED543F7011786BE670
:101283006D700318E66C60067873E64410F62278F6
:1012930068E6FE08E67DFFC39402EE9400502678CC
:1012A3006BE664011846701D7867E6184670167879
:1012B30064E6B481107862E6B4060A7BFF7A0079AB
:1012C30003515BE4FDAF0522753BFF786BE66402D7
:1012D3001846600261707867E618466002617078AC
:1012E30064E6FF20E70261707862E6FEC39404407F
:1012F3007CE4F51EF51FEF541F14601514602024C1
:1013030002705C7869E618467055431E01F53B8010
:101313004EC37869E6940218E694005042803D7803
:1013230068E6FC08E6FDAA04547F4A7006EEB4049E
:101333000280297862E6B40626ED247F60122480B9
:10134300701D7880E6B40606751E01751F00800CBB
:101353007879E6B40606751E01751F00E4F53BE5D2
:101363003B700AFB7A00791E7D02FC515FAF3B2282
:10137300E4FDFC753FFF7864E66480600281797860
:1013830066E6FE08E6F53BEEFFE460028158EF24D3
:10139300FE602714604A240260028158E53B600224
:1013A30081587882860308E6FA08E6F98B3C8A3D81
:1013B300F53E1200867C00FD8158E53B60028158B2
:1013C3007885860308E6FA08E6F98B3C8A3DF53E04
:1013D300900002120167FAE5F0FFEAFCEFFD807569
:1013E3007888860308E6FA08E6F975F003E53BA476
:1013F300F58285F0831203008B3C8A3D893EE53BF1
:10140300700BFC7D04786CE65480F680487868E6BF
:10141300FE08E6FF4E600AEF64097003EE64047091
:1014230034E53BC3786196502CAB3CAA3DA93E9072
:10143300000112009F7C00FD120086547FFF786C30
:10144300E654804FFFF67401253EF53EE4353DF545
:101453003DEF4480F6ED4C601D786AE6FE08E6FF3A
:10146300D3ED9FEC9E4004AC06AD07AB3CAA3DA96F
:101473003E515FE4F53FAF3F22753BFF786BE618C3
:101483004670787864E6541F24FE706F7868E6FE31
:1014930008E6547FFF4E700D7862E6C3940440055E
:1014A300E4F53B8056C3EF9403EE9400504D786708
:1014B300E6184670467862E66406703F120BDC78E5
:1014C30069E630E70B759611759710E59620E7FBF3
:1014D3007869E620E710759694E59620E7FB439735
:1014E30020E59620E7FB7869E6247F600A24807074
:1014F3000A78807606800478797606AF3B227FFFF0
:101503007869E6FE7867E6FDEEC39402501B7862C5
:10151300E6B40615786BE61846700EED700B78642A
:10152300E6541FFEBE0102E4FF22C2067F01120B36
:10153300E4D1E65014759694E59620E7FB5397BFE4
:10154300E59620E702A1F580F7D1DA4002A1F51272
:101553000FDF8F3A7880E66403600A08E64402F6F8
:10156300753BF9806CC3787FE6953A18E694005092
:101573000E7880760108E64402F6753BF2805278D5
:101583007B860308E6FA08E6F9AD3A7F01B1F678FF
:1015930081E654FDF6AF3A7E00C3787FE69FF618E6
:1015A300E69EF618EF26F618EE36F6787FE618462E
:1015B3006006E53A6440600678807601D206E4F579
:1015C3003B759694E59620E7FB5397FEE59620E757
:1015D300FB7881E630E01B30060354FEF6E53AFB68
:1015E3007A00787EE6F54208E6F543AD3B7F0212CA
:1015F3000FEE228F3D8D3E8B3F8A408941E53ED3DE
:1016030094004032E59620E7FBE53D44E0F596E59E
:101613003F1460102403601624FE701AAD41AB3DE5
:10162300AF3EC1F3AC40AD41AB3DAF3EE12FAD4169
:10163300AB3DAF3EF110227873E6139206D1CF8F04
:101643003BC37871E69F18E69400500E78727601DA
:1016530008E64402F6753CF28059786D860308E685
:10166300FA08E6F9AD3BE4FFB1F6AF3B7E00786FD5
:10167300EF26F618EE36F6C37871E69FFF18E69E5E
:10168300FEF608EFF6E4F53CEF4E701CE53B6440D4
:101693006016759611759748E59620E7FB78727684
:1016A3000108E654FEF6800B759611759740E59692
:1016B30020E7FB300615E53BFB7A007870E6F54240
:1016C30008E6F543AD3CE4FF120FEE22759696E56E
:1016D3009620E7FBAF9722759694E59620E7FBE506
:1016E300971322759694E59620E7FBE597A2E622E9
:1016F300A8051FEF600AE59620E7FBA6970880F28E
:10170300E59620E7FBEB4420F596A69722A8051F54
:10171300EF600BE59620E7FBE597F20880F1E5968D
:1017230020E7FBEB4420F596E597F2228D828C832C
:101733001FEF600BE59620E7FBE597F0A380F1E54B
:101743009620E7FBEB4420F596E597F022753B6482
:10175300A93B7A007B007D08E4FFB1F6E53B240258
:10176300F8E6FC08E6FAECFFEAFEE53B2402F8A6FD
:101773000608A607E53B2404F8E6FC08E6FAECFFB6
:10178300EAFEE53B2404F8A60608A607E53B240683
:10179300F8E6FC08E6FAECFFEAFEE53B2406F8A6C9
:1017A3000608A60722A805AE071FEE600BE59620E4
:1017B300E7FBE6F5970880EF228D828C83AE071F47
:1017C300EE600BE59620E7FBE0F597A380EF22A8F8
:1017D30005AE071FEE600BE59620E7FBE2F59708E1
:1017E30080EF228D828C83AE071FEE600CE596207E
:1017F300E7FBE493F597A380EE22E4F52CD2EC20EB
:10180300ECFDAFBDAEBE7C0C7DE4120330E4FB7A8D
:1018130004117FEF24FEB40800504C90182C75F08F
:1018230003A4C58325F0C5837302184402184E022E
:10183300185802186202184902186702185302184E
:101843005D432C088021432C48801C432C40801787
:10185300432C508012432C10800D432C30800843BE
:101863002C208003432C28208303432C0120820354
:10187300432C02BF0103432C04AF2C22F9F81202BC
:101883002A8F548E538D528C51E47F4EFEFDFCAB58
:1018930054AA53A952A851D31202BC50057555013D
:1018A30021F0E47FC47E0AFDFCAB54AA53A952A8DD
:1018B30051C31202BC4014E47F5A7E0BFDFCA851B5
:1018C300D31202BC500575550221F0E47F9A7E09BC
:1018D300FDFCAB54AA53A952A851C31202BC401435
:1018E300E47F307E0AFDFCA851D31202BC5005757B
:1018F300550321F0E47F277E06FDFCAB54AA53A9D0
:1019030052A851C31202BC4014E47FBD7E06FDFC05
:10191300A851D31202BC500575550421F0E47F7120
:101923007E07FDFCAB54AA53A952A851C31202BCB3
:101933004014E47F077E08FDFCA851D31202BC507B
:101943000575550521F0E47F7C7E08FDFCAB54AAA8
:1019530053A952A851C31202BC4014E47F127E095A
:10196300FDFCA851D31202BC5005755506807EE4D8
:101973007FBE7E06FDFCAB54AA53A952A851C312E5
:1019830002BC4014E47F547E07FDFCA851D312022D
:10199300BC50057555078055E47F4E7E05FDFCABB5
:1019A30054AA53A952A851C31202BC4014E47FE4C1
:1019B3007E05FDFCA851D31202BC50057555088065
:1019C3002CE47F8B7E04FDFCAB54AA53A952A8518F
:1019D300C31202BC4014E47F217E05FDFCA851D351
:1019E3001202BC50057555098003E4F555AF552225
:1019F300C0E0C0F0C083C082C0D075D000C000C0BA
:101A030001C002C003C004C005C006C007C2EDAFD9
:101A1300BDAEBE7C0C7DE4120330E47BFF7A031180
:101A23007F8F5FD007D006D005D004D003D002D07B
:101A330001D000D0D0D082D083D0F0D0E032E5A165
:101A4300A2E6920DE5F8540C24FF920AD20E2285E9
:101A53004F18854F19854F1A8F1D8C1B8D1CEB1347
:101A6300920BEBA2E1920C200E02514185A350533D
:101A7300F80F300D05300A02C2FA30F915E5196086
:101A830011300C09A81DE2F5A3051D8003E4F5A39D
:101A9300151922C0E0C0F0C083C082C0D075D00049
:101AA300C000C001C002C003C004C005C006C00717
:101AB30053C87F53C8FBE559B401117559027F0020
:101AC300855A4F7B02E4FDFC5152800AE559B40369
:101AD30005C281755900D007D006D005D004D003C4
:101AE300D002D001D000D0D0D082D083D0F0D0E0CB
:101AF30032C0E0C0F0C083C082C0D075D000C00047
:101B0300C001C002C003C004C005C006C007E5F899
:101B130054F0FFF4440F52F8EF30E747E518602B19
:101B2300300B13851C82851B83E5A3F0051CE51C84
:101B33007002051B800385A34AD5180C300D0530B0
:101B43000A02D2FA7181800385181AE519601430EC
:101B5300F911300C09A81DE2F5A3051D800375A337
:101B6300001519D007D006D005D004D003D002D079
:101B730001D000D0D0D082D083D0F0D0E0327559DC
:101B830003AFBFE4F5BF75CDFF75CCFC43C8048F2D
:101B9300BF22C0E053917F055CE55C7002055BD01A
:101BA300E032759682E59620E7FBAF97227596841F
:101BB300E59620E7FBAF972275968EE59620E7FB27
:101BC300AF9722759691E59620E7FBE597A2E4226D
:101BD300759691E59620E7FBE597A2E2227596912B
:101BE300E59620E7FBE5971322759691E59620E7A6
:101BF300FBE597A2E122759691E59620E7FBE59731
:101C0300A2E522C0E0C083C082C0D0E5D230E12982
:101C130053D2FDE517602074942516F582E4340051
:101C2300F583E0F5D30516E516C3948040037516D6
:101C3300001517C2108002D210E5D230E01F53D234
:101C4300FE74142512F582E43400F583E5D3F00520
:101C530012E512C3948040037512000514D0D0D04E
:101C630082D083D0E03274142513F582E43400F576
:101C730083E0FF0513E513C394804003E4F51315D4
:101C830014228B2B8A2C892DE5147002FF22AB2B97
:101C9300AA2CA92D900002E41200DE900003E412A6
:101CA30000DEE51064047062AB2BAA2CA92D900012
:101CB30001E5111200DE7E0191698F2EEF64F7605A
:101CC30031EEC39403502BBE010BAB2BAA2CA92DD1
:101CD300900002800CBE0211AB2BAA2CA92D900000
:101CE30003E52E1200DE0E80CFBE03CC852E110E2F
:101CF30080C6BE01028073BE02028076BE030280EC
:101D030079EE64046002C14C807C91698F2EE52ECC
:101D1300C3948050037F0022E52E64F0706DFE9122
:101D2300698F2EEF64F7603FEEC394035039EE7072
:101D33000BAB2BAA2CA92D900001801ABE010BAB73
:101D43002BAA2CA92D900002800CBE0211AB2BAA4A
:101D53002CA92D900003E52E1200DE0E80C1BE03D8
:101D6300BE852E110E80B8BE0105751005C14CBE8F
:101D73000205751006C14CBE0305751007C14CEE74
:101D830064046002C14C751004C14CE52E54F02468
:101D930070602324F0602624F0602924F0602C2452
:101DA300F0602F24F0603224F060352470705C758D
:101DB30010087E0280557510097E02804E75100A48
:101DC3007E02804775100B7E02804075100C7E01E9
:101DD300803975100D7E01803275100E7E02802BC6
:101DE300E52E240E601214600824FC5012240670A1
:101DF300157510027E0180137510037E02800C7529
:101E03001005E4FE800575100FE4FEAB2BAA2CA988
:101E13002D900001E52E1200DEE4F511E511C39EBD
:101E2300502791698F2EEE700BAB2BAA2CA92D9006
:101E33000002800CBE010EAB2BAA2CA92D9000032F
:101E4300E52E1200DE051180D3E5104410AB2BAA5A
:101E53002CA92D1200CC7F04228B2B8A2C892DEDEB
:101E6300D394004043E517C3948050F9AB2B052D61
:101E7300E52DAA2C7002052C14F9120086FF749428
:101E83002515F582E43400F583EFF00515E515C358
:101E930094804003E4F515051730100953E7FD431B
:091EA300D20243E7021D80B722C0
:00000001FF
